:020000021000EC
:108000000040002075CA0100BDCA0100BFCA0100BE
:108010000000000000000000000000000000000060
:10802000000000000000000000000000C1CA0100C4
:108030000000000000000000C3CA0100C5CA010022
:10804000C7CA0100C7CA0100C1890100558C0100DF
:10805000C7CA010000000000C7CA0100658D010009
:10806000C7CA0100AD86010011860100C7CA010020
:10807000C7CA0100C7CA0100C7CA0100C7CA0100B8
:10808000C7CA010059AF0100C7CA0100C7CA010031
:1080900039B00100DD90010041CA0100C7CA0100EA
:1080A000C7CA0100C7CA01000000000000000000AC
:1080B00000000000000000000000000000000000C0
:1080C00010B5064C2378002B07D1054B002B02D0AE
:1080D000044800E000BF0123237010BDB42000203D
:1080E000000000008C290200044B10B5002B03D0C7
:1080F0000349044800E000BF10BDC0460000000076
:10810000B82000208C290200402292029A1A92463E
:108110007047C046174B002B00D1134B9D46FFF70D
:10812000F3FF00218B460F461348144A121A00F041
:1081300065F80E4B002B00D098470D4B002B00D05C
:1081400098470020002104000D000D48002802D0AF
:108150000C4800E000BF00F02DF82000290000F0DE
:1081600027F900F011F8C0460000080000000000E8
:108170000000000000400020B4200020682A0020F9
:108180000000000000000000084B10B50400002BA8
:1081900002D0002100E000BF054B1868836A002B65
:1081A00000D09847200000F031F8C04600000000E1
:1081B000B017020070B500260C4D0D4C641BA410C6
:1081C000A64209D1002609F0E7FA0A4D0A4C641BC1
:1081D000A410A64205D170BDB300EB5898470136F4
:1081E000EEE7B300EB5898470136F2E7AC200020E9
:1081F000AC200020AC200020B0200020030082181A
:10820000934200D1704719700133F9E7FEE7C04689
:108210001C4B1B78012B00D070471B4B1B681B07A6
:10822000FAD11A4AF0231268110019401A4201D0FB
:10823000102924D1164A12681A4210D0F022134B8A
:108240001B681340402BE7D1114B1B681342E3D14D
:108250008022C1230121D205DB00D150DCE70D4B88
:108260000D4A1A6080220D4B12021A60054B1B78D2
:10827000012BD1D1044B1B681B07DFD0CCE7302981
:10828000D8D0DBE7E00F00F0E40F00F0E80F00F0DB
:10829000EC0F00F004050040DFFF07C0186C004041
:1082A00082B00190019B002B14D0019B0A48013B36
:1082B00001930138C046C046C046C046C046C046CD
:1082C000C046C046C046C046C046C046F1D1019B2C
:1082D000002BEAD102B07047E70300001B2847D00B
:1082E0006138C0B2162808D82C4B80001B589F4616
:1082F0002B4A53880A3353807047A023294ADB0551
:108300009A58520238D4A1228021D200C903995030
:10831000F2E7234A13880A3B19B21B0431D41180B7
:10832000EAE71F4AD3880A3B19B21B0432D4D18032
:10833000E2E71B4A13880A331380DDE7184AD38823
:108340000A33D380D8E7164A53880A3B19B21B0474
:108350001DD45180D0E7124A93880A3B19B21B04FE
:1083600012D49180C8E70E4A93880A339380C3E7FA
:1083700001220D4B1A70BFE780210C4AC9039950A6
:10838000BAE700231380B7E700239380B4E7002304
:108390005380B1E70023D380AEE7C046B417020094
:1083A0003C2A002004050000462A00200C0500009D
:1083B000F0B5DE4657464E464546E0B585B000F07E
:1083C00041FB00F0D9F800F0D5F900F0DDFC00F039
:1083D0007BFC6421012002F0DDFC00F0CDFD00F00B
:1083E0009BFF00F083FE0023464F00253B70464B69
:1083F000464E9846464B474C9B46474B9A468223EF
:108400005B0099464B46F35A002B70D100F0A6F959
:1084100000284CD06B1C14212800039305F03CF974
:1084200000290AD1A0213D4BC905CA588023DB058C
:108430001A4262D1A122D2008B5000F087FC00F0DA
:10844000C1FC00F07BF90100354807F0FDFF042274
:10845000A35E0221625E0020215E0625605F00901F
:10846000304807F0F1FF304B00229B5E2F4A00217D
:10847000525E2F490020095E404607F0E5FF2D4B74
:1084800000229B5E2C4A0021525E2C490020095E8E
:10849000404607F0D9FF2A4B524619885B461268BE
:1084A0001B68284807F0D0FF00F05EF9039D02F03A
:1084B0005FFC002810D13B78002BA3D0224807F0A6
:1084C000C3FF6420FFF7ECFEBFF34F8F1F4B204A22
:1084D000DA60BFF34F8FFEE702F002FC00F03CF8D9
:1084E0003B78002BEAD14B46F35A002B8ED030005C
:1084F00000F012FBFFF7F2FE88E7A021154AC9053C
:108500008B509AE7462A002030180200FC250020F4
:108510000C2700203C2A002004270020040500002E
:10852000101802001C180200F62500200827002061
:1085300002270020442A0020182800202229002099
:108540001A280020401802005418020000ED00E034
:108550000400FA050C050000054A064B1188198035
:108560005188598091889980D288DA807047C046B6
:108570003C2A002028290020A222194B1949D200A8
:108580009950194A19498020995019490432995033
:10859000184A1949C0039950A023EB210322DB0597
:1085A000C9005A5008315A5010315A5008315A50A7
:1085B000A121C90058508020400458508020400517
:1085C00058508020C00558500C495A5004315A5018
:1085D00028395A5008395A500021094A9950704791
:1085E000006000400315130014050000031713007A
:1085F000031913001C050000031D13004C070000A5
:10860000140700000122014B1A7070474C2A002009
:10861000A62210B5204B5200995800293BD00021CA
:1086200099501E490A683932FF320A6001229A6461
:108630001B4A1278002A2ED1A922D2009A58FA2376
:108640005B009A4227D2174A0420135E9188DB43CD
:10865000DB170B40FA2118B28900884201DD0800BF
:108660000B1C93800624135FFA24DB43D188DB17AD
:108670000B4019B2A400A14201DD2100231CD380CC
:10868000FA239B009C46A822034BD20060449850DA
:10869000054A6144995010BD00A00040482A0020BE
:1086A000242900202829002044050000A62210B516
:1086B0001E4B52009958002937D0002199504C3A4E
:1086C000FF3A9A641A4A1278002A2ED1A922D200BF
:1086D0009A58FA235B009A4227D2164A0020135E6A
:1086E0001188DB43DB170B40FA2118B2890088425E
:1086F00001DD08000B1C13800224135FFA24DB4306
:108700005188DB170B4019B2A400A14201DD210002
:10871000231C5380FA239B009C46A822034BD200C3
:1087200060449850044A6144995010BD0090004044
:108730002429002028290020440500000122054B9F
:108740009A64A922D2009858034BC0081B68C0182D
:108750007047C04600A00040482A0020014B18780E
:108760007047C0464C2A00200022014B1A70704707
:108770004C2A0020F8B557464E4645460023DE46B3
:108780004F4AE0B513604F4A01211370A2234E4AAD
:10879000DB00D1509C46C1239B009A4680231B03DB
:1087A0009B4653465846A827FA24D050474E484B7C
:1087B000484DA400FF008020D45199469451535154
:1087C00008236546800013509846434BD1605E46AF
:1087D000595155465E513D4EDC519C514C463D4DE4
:1087E0005C5144461C50D9601160C0225200904632
:1087F0008022D2009146196042464946374B384C98
:1088000099508932FF3299580C40C0210904214304
:10881000995049461960414658509958314C0C407E
:10882000C02109022143995061461860A3202E4BB4
:108830002E4AC0005A502E4A2E495A502E491950DD
:108840002E481A50A4222E48D20098502D4A2E4865
:108850001A50043019502D4910305A50A6222C4974
:10886000D20099502B4A2C495A502C4919502C4867
:108870001A502C4A0C30DA512B4A9A511950FF21C8
:108880005A512A4A002099500023294AFA3902F005
:108890004DFE00280FD10121264A274802F0B8FEDC
:1088A00000222649264802F0C9FEF0BCBB46B2466B
:1088B000A946A046F8BD0022002102F0F1FAEAE73D
:1088C000482A00204C2A002000A000404405000057
:1088D000C40900004C0500000090004000E100E0E9
:1088E000FFFF00FFFF00FFFF00F00140409100404C
:1088F00000600040140500004C9100401C05000081
:108900004491004004600040240500002C05000054
:1089100040A1004008600040340500004CA1004028
:108920003C05000044A100400C600040040500002C
:10893000D0200020058601006418020066060000B1
:1089400098220020F8B5DE4657464E4645469346E7
:10895000E0B5002A19DD80238A4698467C3B0C004E
:1089600099460427114E124DDA4443462178EF50C0
:108970003378002B10D000230E4A33700E4B013495
:10898000D1504B462B605445EFD15846F0BCBB4606
:10899000B246A946A046F8BD084800F0ADF84B46DF
:1089A00001342B605445E0D1EFE7C046642000203D
:1089B00000E100E0002000401C050000102700201E
:1089C000842210B5194B52009958002916D18E23D4
:1089D000164C5B00E258002A09D000221448E250ED
:1089E000183BC35A002B1CD10122124B1A70922241
:1089F0000E4B5200995800290AD110BD0021995000
:108A0000A322D20099580C48C9B200F075F8DEE7ED
:108A1000002199509022D2009958084807F014FD7F
:108A2000EBE700F079F8064BE050E0E7002000406B
:108A30001027002064200020FC2500206818020078
:108A40001C05000010B51E4800F04CF81D4800F051
:108A500049F8A023E7220321DB05D2009950002129
:108A60000E2008329950184B184AC0249850184AC2
:108A700002309850174A1848A4009850A0200422A9
:108A8000C0001A5084204000195014301950013190
:108A900099601960C2211E388900FF385850A12002
:108AA0000439800058500D4B8539FF395A501959F7
:108AB0000B480840C0210904014319511A6010BD38
:108AC000FC25002010270020002000400C0500009D
:108AD000140500002405000000E0D70100E100E0DB
:108AE000FFFF00FF80220023FF2152008352023249
:108AF000815202328352704710B58124FF236400F3
:108B0000025B01321340822203535200C154835A44
:108B10000133835210BDC04610B58024FF210300ED
:108B20006400025B805C01320A401A5305315A5AD4
:108B3000013A5A5210BDC046F0B54746CE46984657
:108B400080B5002A48D0B1230027244E244D254C5F
:108B5000DB002F702770F0502348315080218900AE
:108B600077500121B16028780028FCD000212970BD
:108B700080211A488900012A25D00125455001236A
:108B800099468023012115489B0001604146984683
:108B9000FF3BA325FF3B00269C46ED002378002BDE
:108BA000FCD026704359013AD2B20B70012A0DD085
:108BB0004B460362002A01D00131EFE70020C0BC20
:108BC000B946B046F0BD02254550D8E74346674652
:108BD0000131C7500262E1E70120F0E700300040B8
:108BE000B9220020B82200201C050000F0B5002AA0
:108BF00027D0B1270026144D144CFF002670E851F1
:108C0000802080002E50124829500121A96021782F
:108C10000029FCD000210020217019009A180A4E6A
:108C20000B4DD2B20B7873512378002BFCD001315D
:108C3000CBB220709A42F5D101220020024B5A613A
:108C4000F0BD0120FCE7C04600300040B922002002
:108C50001C050000F8B58423164A5B00D158002992
:108C600004D00021D1500122134B1A708E23114AD7
:108C70005B00D158002904D00021D15001220F4BB4
:108C80001A7092250B4C6D006359002B00D1F8BD72
:108C90000B4EA759FFF752FDB123DB000200E3584A
:108CA0003900084807F0D0FB0323A3510023635188
:108CB000EDE7C04600300040B8220020B922002075
:108CC000C40400007C180200A023E2211A4ADB053C
:108CD000C90010B55A5008395A500421174B053AAB
:108CE000FF3A9950164A023999500022CD20073197
:108CF000FF315A5014315A501249C0045850C12102
:108D0000A1208900800058500539FF395A50A0220F
:108D1000FC39D200FF399950C0230820C024C0215B
:108D2000094A5B00D050A400135909061B021B0A14
:108D30000B431351106010BD0C06000000300040C2
:108D40000C0500002405000000E100E08022044B37
:108D5000D2009A58002A01D101321A607047C046E9
:108D60000070004080220021054B52009950A12242
:108D7000D2009A58D3009B1A024A13807047C0460B
:108D8000007000401A2800200A4B0B4A0B49C020F3
:108D90009950A0210122C9005A50FD39FF395A507B
:108DA000074A000653581B021B0A034353508023F3
:108DB00013607047007000400405000004100000BC
:108DC00000E100E0F0B5C64600B5604C82B0257801
:108DD000012D16D0022D52D0002D3CD0322001386A
:108DE000C046C046C046C046C046C046C046C04653
:108DF000C046C046C046C046F1D102B080BCB846AD
:108E0000F0BDFFF79BFC524E3368C01A514B98429D
:108E1000E4D9514F03223B0000217720FFF78CFE5D
:108E20007A783B7812021B041343BA7877211343F4
:108E30004A4A58201360B122494BD200995002226D
:108E40008A31FF315A50474958509D602270FFF7D0
:108E500075FC3060C2E7B1227721414BD2009950B6
:108E600080227539920099503E4A4631995001222C
:108E70009A602270FFF762FC354B1860AEE7FFF78F
:108E80005DFC334B1B68C01A324B984200D8A5E7F3
:108E9000314D03222B0000217720FFF74DFE6A7829
:108EA0002B7812021B041343AA782F4D13432F4A29
:108EB000002113606A89288912029B1A98461A00B9
:108EC000002304F051FD4E06CB110021C2093243AC
:108ED000AE88300412184B41009201930021E888BB
:108EE0004246002304F040FD0E06020A32436E881B
:108EF0000B12F003002116001F00424636184F41A6
:108F00000023A889002104F02FFDFA23DB009C46F2
:108F10004902C00D164B0843604418600F4B3200E5
:108F2000186800213B0004F01FFDCD02420D4B15D7
:108F30002A4300980199121A8B4111005B04CA0B55
:108F40001A430C4B1A600023237047E7C822002005
:108F5000C42200200F270000BC220020542A002039
:108F6000003000401C050000CC220020502A0020C8
:108F7000042700200C27002070B5A024094E0A4DBC
:108F80002B00022221007720FFF7D6FD2A786B788C
:108F9000120202341343E4B233800236B02CEFD114
:108FA00070BDC046CC220020C022002076DF704772
:108FB0007ADF70477CDF70477FDF7047A9DF70473B
:108FC00060DF70472EDF704732DF704733DF704756
:108FD0004CDF7047A022802110B5044BD205490414
:108FE000D1500022002101F05BFF10BD0C050000F4
:108FF000F8B50E00151E08D00024044F315D38006E
:109000000134FFF779FDAC42F8D3F8BD1C280020ED
:1090100010B5040003F0FCFA21001F4803F054FBD4
:109020002388132B23D012D8102B2AD0112B0AD12E
:10903000A022A1238021D205DB004905D1500122C5
:10904000164B52421A80200003F09EF910BD522B9D
:10905000F9D1124B0022188800210023FFF7AEFF40
:109060000028F0D00022002101F01AFFEBE70B4BA3
:109070000022188885210023FFF79EFF0028E2D0F8
:10908000F0E7A0228021064BD2054905D150A288E5
:10909000024B1A80D7E7C046242300206C20002012
:1090A0000C05000010B50378002B00D010BDA022E5
:1090B0008021084BC903D205D150074B3B211888AA
:1090C000FFF774FF0028F1D00022002101F0E8FE34
:1090D000ECE7C0460C0500006C2000200121024A8C
:1090E00013784B40137070472429002000B57B484B
:1090F000A9B0FFF7F7FC7A48FFF7F4FC00234822F9
:109100000820784903F06EFC002800D0B9E008225E
:1091100000211AA8FFF772F868216B4601225B183C
:109120001B7893436A46521810001370FFF748FFEC
:10913000002800D0CDE06C4803F078FC002800D077
:10914000C2E00022694B15201A70FFF73DFF012194
:109150001520FFF73BFF1520FFF734FF0221032006
:10916000FFF736FF11236A461372614ABF33D258A4
:109170002F33604913401AA85F4A07F07FF91AA8F5
:1091800007F09CF91AA982B202A8FFF713FF002882
:1091900000D094E0082200210CA8FFF72FF8574BCD
:1091A0000CA80C93C8235B040D93FFF701FF002864
:1091B00000D07FE0002104221AA8FFF71FF8504BCF
:1091C00050481AA91A9303F0B3FA002800D06CE0B3
:1091D000382200210CA8FFF711F830216A4602233B
:1091E00052181370C0236A46DB00538600213822D0
:1091F0001AA8FFF703F878216A4601235218138052
:10920000414B2422002102A81F93FEF7F7FF012300
:109210006A4613754022002306920793002302AA90
:1092200000931AA90CA802F0EDFF002838D11C22E7
:1092300000211AA8FEF7E2FF344A74201B92F022A4
:10924000694612031C92052209180A7076216A46A3
:109250000023521813806A4602311A9352180133C0
:1092600013702B4B1AA81F932A4B209303F094F9E9
:10927000002810D1032003F069F8002806D129B096
:1092800000BD0022002101F00BFE40E7002200217A
:1092900001F006FEF3E70022002101F001FEE9E7FC
:1092A0000022002101F0FCFDC1E70022002101F0B5
:1092B000F7FD8DE70022002101F0F2FD7AE70022A0
:1092C000002101F0EDFD65E70022002101F0E8FD3D
:1092D00037E70022002101F0E3FD2CE71C280020E5
:1092E00034290020DC2200201190010024290020D4
:1092F00000100010C0180200B418020006000C0094
:10930000F18F01002423002068200020CD0C0000F4
:10931000A5900100D58F0100F0B5DE4657464E46B8
:1093200045464023E0B5002589B006AC6370784B14
:1093300021006380774B2570A380774B0622981D10
:109340009A4607F077F8A0220327A378D20598461B
:10935000C133FF339B009F50E378A1269946C13368
:10936000FF339B009F50207941460300C133FF33F8
:109370009B009D506379F6009B46C133FF339B00F1
:109380009F50664BB44699514E4665495E5088469B
:10939000043158500120594606008E40310066467F
:1093A000915161785F4E0906995124785E4966466D
:1093B0005C508421A0244900E4005D501851E02451
:1093C000E4001751594C1751644610518024A401F0
:1093D00094515646564C2360F77A4646B840905111
:1093E000544A5D5050359D505A58002AFCD0A32253
:1093F000D2009A58A0250192A122ED05D200A850D2
:10940000019A01320192464AA85000255D5001217F
:10941000484A99509D508422404B52009958002947
:10942000FCD000219950A322D2009B5884220293A1
:109430003A4B520099580029FCD0A321C900595831
:10944000A0250291A121ED05C900685002990131C2
:1094500002913349685000219950364A063199509B
:1094600003312E4BFF315A58002AFCD0A322D200E0
:109470009A58A0250392A122ED05D200A850039A84
:10948000842701320392264A7F00A85000225A50B6
:109490006021284A214D9950EB59002BFCD0A32381
:1094A000DB00EB580493A023DB059846A12342463A
:1094B000DB00D050049B642001330493FEF7F0FEE0
:1094C000534601212560DB7A42469940144B8420A3
:1094D000D15000230622EB51164B4000EA500F4BAF
:1094E0001A58002AFCD0A322D2009B58A022059330
:1094F000A1230120D205DB00D150059B0133059348
:1095000009B0F0BCBB46B246A946A046F0BDC04675
:109510000B0900001211000044230020004000400D
:109520000C0500002405000054050000340700006D
:10953000402300201C050000242330B51E4C83B0BE
:10954000E35C002B16D0002812D16B46D87123683B
:109550000122597C636818786B460733FFF746FB96
:10956000002826D16B460020DB79637403B030BD40
:109570000220EAE7A37A002B1BD000280FD16B460C
:10958000DD1DD87123680122597C636818782B008F
:10959000FFF72CFB00280CD12B786374E6E7637C83
:1095A000002B04D16B46DD1D01232B70EAE7002060
:1095B000DCE701204042D9E77020002010B55E4C66
:1095C00082B0A37A002B00D1B2E000236A46D371A7
:1095D00023680122597C636818786B460733FFF7CC
:1095E00005FB002800D0A3E02368012259796368B5
:1095F00018786B460733FFF7F9FA002800D097E098
:10960000236801221979636818786B460733FFF7DE
:10961000EDFA002800D08BE02423E35C002B42D03D
:109620000C236A46D371236801221979636818787C
:109630006B460733FFF7DAFA002800D078E03230C3
:10964000FEF72EFEC0236A46D371A37ADB0701D54D
:10965000E023D371236801221979636818786B4677
:109660000733FFF7C3FA002862D1637C002B00D0D8
:1096700002236A46D37123680122597C63681878F3
:109680006B460733FFF7B2FA002851D16B46D87109
:10969000236801225979636818786B460733FFF70E
:1096A000A5FA404242E004236A46D37123680122AE
:1096B0001979636818786B460733FFF797FA002823
:1096C00036D1A27C4023002A06D1A27A3F3B134028
:1096D0001F22013B934360336A46D3712368012202
:1096E0001979636818786B460733FFF77FFA00280B
:1096F0001ED13230FEF7D4FD637C5A1E93416A4678
:10970000D37123680122597C636818786B4607334C
:10971000FFF76CFA00280BD123002268103351792F
:10972000626810780122FFF761FA404202B010BD72
:1097300001204042FAE7C0467020002070B50600C4
:1097400082B0282800D9BCE02323624C01ADE35C41
:1097500000282BD1002B18D02870A37C8022002B4E
:1097600002D0022302322B702223E35C002B00D0B4
:109770007AE023680122D97D636818782B00FFF70F
:1097800035FA002801D12323E054E023DB002B80AD
:1097900023680222597D636818782B00FFF726FAA8
:1097A000002800D08DE0207502B070BD012B19D0CB
:1097B00030232B70A37CB022002B02D03223023244
:1097C0002B702223E35C002B4CD123680122D97D2E
:1097D000636818782B00FFF709FA002802D12323C9
:1097E0000122E25420232B70012E5BD0052E4CD990
:1097F000142E3BD903236B70A37A002B5FD0042374
:109800006A46D370E37A042B59D0236801229978F1
:10981000636818786B460333FFF7E8F9002853D1E3
:109820006B460722DB78E3726B789B011343DBB254
:109830006B7023680222597D636818782B00FFF74C
:10984000D5F900283DD10823A372073B2375207367
:109850002333E35C002B16D101302374FFF76CFE39
:109860000020A1E72A70B0E72A7082E702236B701C
:10987000A37A002B05D005236A46D370E37A052B23
:10988000C3D18723D4E700208EE701236B70A37A2E
:10989000002B05D006236A46D370E37A062BB4D199
:1098A0004723C5E700236B70A37A002B05D006235E
:1098B0006A46D370E37A062BA7D10723B8E7C723FC
:1098C000B6E7012040426FE707236A78920113430D
:1098D000DBB2ADE77020002010B5174902004B7ACB
:1098E000022B20D00AD8002B15D004230370CB7C88
:1098F00008240020002B00D0147010BD032B07D1CA
:1099000010230370CB7C20240020002BF5D0F3E73C
:1099100001204042F1E702230370CB7C04240020A5
:10992000002BEAD0E8E708230370CB7C102400204A
:10993000002BE2D0E0E7C0467020002030B5204C7C
:1099400083B0A37A002B37D06B46DD1DBB2815D81A
:1099500061281BD9022302222B70E37A934213D091
:10996000236801229978636818782B00FFF73EF985
:10997000002821D12B78E37203B030BD01230122EE
:109980002B70E37A9342EBD10020F5E7292805D824
:10999000132807D9042304222B70DEE703230322B4
:1099A0002B70DAE7092803D9052305222B70D4E7A9
:1099B000062306222B70D0E701204042DCE7C04698
:1099C0007020002070B53A4C0500A37A82B0002BBD
:1099D0006AD02423E35C002B66D1227D01AE002AED
:1099E0002DD0421E272A58D92322A25C01AE002A7C
:1099F00017D03370A27C8023002A02D07E3B3370C4
:109A000080332222A25C002A4CD123680122D97D16
:109A1000636818783300FFF7E9F8002801D12323A1
:109A2000E054E023DB00338023680222597D636821
:109A300018783300FFF7DAF8002800D12075FA23F0
:109A4000291C9B009D4223D88BB2042B1ED3FA20E5
:109A500089B2800003F024FE236801383070597801
:109A60006368012218783300FFF7C0F800281BD183
:109A7000FA2031788000013103F012FE80B2E081DB
:109A80004008FFF75BFF002002B070BD0421DEE755
:109A9000191C8BB2042BDAD2F8E7C0B2FFF74EFEE6
:109AA0000020F1E73370B0E701204042ECE7C04608
:109AB00070200020242370B5274D82B0EB5C002B72
:109AC0003ED1AC7A002C40D00133984304402E7C28
:109AD0002C74241A621E94416442002816D12A7DF7
:109AE000002A2FD06A7C002A27D16A46D3712B68BE
:109AF0000122597C6B6818786B460733FFF776F8BC
:109B000000281AD16B46DB796B7416E06A7C002A58
:109B10000FD16A46D3712B680122597C6B68187883
:109B20006B460733FFF762F8002802D16B46DB79FA
:109B30006B74FFF743FD00280AD1200002B070BD0E
:109B40000024FAE7FFF7F8FCF7E701246442F4E7A2
:109B500001242E746442F0E7702000207023F0B5D9
:109B6000CE4647461A0080B5040083B00240034247
:109B700069D06B469E1D01233370474D01222B682F
:109B8000597D6B6818783300FFF730F8002800D053
:109B90007CE040223378307093432B73224266D0AE
:109BA00002203B233A273922012180469C46383B3C
:109BB00099463533A00604D443466246337049467D
:109BC0003B00E00601D413003170220700D433704B
:109BD0002B680122997D6B6818783300FFF706F82F
:109BE000002853D1082322009A4320D02323EB5C82
:109BF000002B1CD06B46D871AB7C8022002B03D08D
:109C00006A460223D37182222223EB5C002B01D00F
:109C10006B46DA712B680122D97D6B6818786B4628
:109C20000733FEF7E3FF002801D12323E854002384
:109C30003220AC722B75FEF733FB002003B0C0BCA2
:109C4000B946B046F0BD6B469E1D00281CD140278A
:109C5000114D37702B680122597D6B6818783300DD
:109C6000FEF7C4FF002811D13378BB432B730423C4
:109C7000062033703B339C46383B99463E273D22B5
:109C800005218046353395E7327076E700230120C1
:109C9000AB724042D2E7C04670200020802370B5EE
:109CA000744C84B002AD2B7023680122597D636827
:109CB00018782B00FEF79AFF061E00D0C7E064203C
:109CC000FEF7EEFA23682E70597D6368012218783A
:109CD0002B00FEF78BFF002800D0B8E070232B701C
:109CE00023680122D97E636818782B00FEF77EFF77
:109CF000002800D0AEE023680622597E63681878F9
:109D00002B00FEF719FF002800D0A0E004216B799A
:109D100001269B0019400223EA78520013401943A0
:109D20006B783340194300D179E0012900D174E008
:109D3000022900D091E00023E37400232B702368F4
:109D40000122D97E636818782B00FEF74FFF051EAD
:109D500000D07FE00123A08220005B42A360E3816A
:109D600023740133FF33A374FE3B63840C22002170
:109D700016302373FEF742FAA37A6562002B66D091
:109D80006B46DD1D18232B70237A032B0FD023681D
:109D900001229979636818782B00FEF727FF0028C5
:109DA00055D12B78DB082372A37A002B4FD00023E8
:109DB0002B70637A002B0FD023680122D979636856
:109DC00018782B00FEF712FF002840D12B78DB0813
:109DD0006372A37A002B3AD005232B70E37A052B0C
:109DE0000BD0236801229978636818782B00FEF75E
:109DF000FDFE00282BD12B78E372FA208000FFF7BC
:109E0000E1FD002823D1FFF755FE041E1FD10020DD
:109E1000FFF7A4FE200004B070BDE1748DE7236855
:109E20000122D978636818782B00FEF785FE002898
:109E30000DD10F2211002B7819401A4213D004299A
:109E400000D078E70C4806F0FFFAE67475E70124C5
:109E50006442DFE703246442DCE70124074806F09C
:109E6000F3FA6442D6E70124054806F0EDFA6442AD
:109E7000D0E7C0467020002040190200C818020038
:109E8000F0180200F0B5C646242300B5264C0500A4
:109E9000E35C8846170082B0002B3AD0A37A002BEF
:109EA00037D023680222197B6368187801ABFEF76C
:109EB00043FE00282DD16B461E795B7936021E4386
:109EC000AE4229D3606843885B08B3420DD2236851
:109ED0000122D97C007801ABFEF72EFE002818D1B4
:109EE0006B461B79DB061AD4606823680078597BBF
:109EF000EAB24346FEF720FE00280AD129003000CE
:109F000003F044FB01383870002002B080BCB84632
:109F1000F0BD01204042F8E738700138F5E7FFF75F
:109F20004DFB02204042F0E77020002070B5394C14
:109F30000600A37C82B0834260D06B46DD1D23689F
:109F400001221979636818782B00002E30D0FEF7B3
:109F5000F3FD00285AD120222B7893432B702368DD
:109F60001F3A1979636818782B00FEF73FFE002826
:109F70004CD10330FEF794F902232B702033E25CBE
:109F80001033002A02D050332B7030332322A25CCE
:109F9000002A39D123680122D97D636818782B0003
:109FA000FEF724FE002831D10020A67402B070BD57
:109FB000FEF7C2FD002829D1A37ADB0720D4202296
:109FC0002B7893432B7023680122197963681878E2
:109FD0002B00FEF70BFE002818D10330FEF760F9C6
:109FE0002223E35C3022002B01D0B02280232B708F
:109FF0002323E35C002BCDD02A70CBE70020D5E7EC
:10A0000020222B781343DDE72B70C3E70120404269
:10A01000CCE7C046702000202223024AD054002002
:10A020007047C04670200020232370B5184C0500EF
:10A03000E35C82B0834226D000281FD10022822117
:10A04000802302206E46F271A27C002A01D00B0010
:10A05000F0712222A25C002A01D06A46D3712368E3
:10A060000122D97D636818786B460733FEF7BEFD81
:10A0700000280AD12323E55402B070BDB221B023D9
:10A0800032203022DEE70020F6E701204042F3E7ED
:10A090007020002070B50C00160082B0002A1FD07E
:10A0A000114DAB7A002B1BD042BA01AB1A806A6803
:10A0B000C0B240185189884212DC29681078C97EE4
:10A0C0000222FEF793FD00280AD12B68E2B2197E26
:10A0D0006B6818783300FEF789FD404202B070BD0E
:10A0E00001204042FAE7C04670200020F0B5DE466D
:10A0F000454657464E46E0B58BB003932523364D73
:10A1000000910292EB5C8346002B44D1002942D09F
:10A11000002405AF00282DD146E0AB7A002B3AD0C1
:10A1200063BA3B8033041B0C98466A680197E3B21C
:10A13000518943448B422EDC2B681078D97E022251
:10A140003B00FEF753FD002825D12B68F2B2197EA3
:10A150006B68187806ABFEF7EFFC00281BD142466F
:10A16000504606A906F058F9002832D14C44A4B252
:10A17000A3451AD95B461E1B102E00DD1026B3B274
:10A180009946009B49469A46A24452462000FFF752
:10A1900081FF0028C1D0012040420BB0F0BCBB467B
:10A1A000B246A946A046F0BD0197029B5ABA019B50
:10A1B0001A802A68517F6A6810780222FEF716FD1D
:10A1C0000028E8D125230122EA54039B0020EB84D8
:10A1D000E3E702204042E0E77020002070B524262B
:10A1E0001F4D0400AB5D82B0834234D0002820D0E4
:10A1F0002523EB5C002B30D00020FFF79DF90020D9
:10A20000FFF794FEE88CFFF7DDFB6B460022DA7166
:10A210006A682321073310780122FEF7E7FC012347
:10A220000120AB55FFF788F9FFF7C8F9002002B00D
:10A2300070BD0020FFF780F96B462A7C07331A7047
:10A240006A68232110780122FEF7D0FCAC55FFF795
:10A25000B5F90020EBE70020E9E701204042E6E7FE
:10A2600070200020802210B5C82303490348D20083
:10A27000FFF73CFF10BDC046EC190200F60B0000D2
:10A28000F0B587B06D463C4B02A91A8804000A80DD
:10A290009B7803AA8B70394B6F46188810809B7887
:10A2A0009370374B188828829B78AB74354B18888D
:10A2B000A8829B78AB7503231E002640885D28701A
:10A2C000E00818400D5C7D70A5092B40C95C01AD0C
:10A2D000B970915DD35C2970115C6A4669702A4837
:10A2E0000321AB70FFF7D6FE002841D12A000321DD
:10A2F0002648FFF7CFFE00283AD1032204A968467A
:10A3000006F098F80322280005A906F093F86307E1
:10A3100006D501213A782B780A430B433A702B700B
:10A32000A30607D56B4601215A780A435A706B7809
:10A330000B436B70E30512D488206A460321C000EA
:10A34000FFF7A8FE002813D12A0003211048FFF7C9
:10A35000A1FE00280CD10F4B1C8107B0F0BD6B464D
:10A3600001219A780A439A70AB780B43AB70E3E70C
:10A3700001204042F1E7C046B4190200B8190200BA
:10A38000BC190200C0190200260400002A040000C3
:10A39000310400005023002070B586B003AC2200C9
:10A3A000124B050043CB43C2C82D1BD800236A467D
:10A3B00029001371C82003F073F96B4601385871F6
:10A3C00002210B4801AAFFF765FE00280AD12200EE
:10A3D0000C210848FFF75EFE002803D1064B9D8143
:10A3E00006B070BD01204042FAE7C046C419020021
:10A3F00016020000C10A00005023002070B50400BE
:10A4000082B0080063075ED0C823DB0099425AD8A7
:10A4100004F098F9504903F083FC6B46DE1C051CE0
:10A420003000FFF759FA3378082B00D184E021D8A7
:10A43000022B00D170E0042B45D18C21281CC905CA
:10A4400003F038FE03F0B8FA444986B2281C03F042
:10A4500031FE03F0B1FA80B26B4676BA40BA9E8004
:10A46000D880E3071ED4A30730D4630741D400206B
:10A4700002B070BD102B26D18A21281CC90503F01B
:10A4800019FE03F099FA364986B2281C03F012FE31
:10A4900003F092FA6B4680B276BA40BA9E80D880BA
:10A4A000E307E0D5EA20022101AA4000FFF7F2FD10
:10A4B000002808D16B46253002219A1DFF30FFF796
:10A4C000E9FD0028CFD001204042D1E7EC20022155
:10A4D00001AA4000FFF7DEFD0028F4D16B462930C9
:10A4E00002219A1DFF30FFF7D5FD0028EBD163074D
:10A4F000BDD5EE20022101AA4000FFF7CBFD0028C8
:10A50000E1D16B462D309A1D0221FF30FFF7C2FDCD
:10A51000431E98414042ABE78D21281CC90503F03A
:10A52000C9FD03F049FA0F4986B2281C03F0C2FDA9
:10A5300003F042FA80B28FE78B21281CC90503F093
:10A54000B9FD03F039FA084986B2281C03F0B2FDC0
:10A5500003F032FA80B27FE7000048430000C045B4
:10A560000000C0440000404600004045F0B5D6461B
:10A570004F464646C0B586B08D4B03AC0500220061
:10A58000042168200393FFF785FD40231900A322CF
:10A590002940894622702B4200D101E1803363704B
:10A5A000844B6380C0232A005B001A4090461D4202
:10A5B00000D1F0E0804BA380C623A371A32303271F
:10A5C000E3717E4B22000A2123817D482F40FFF753
:10A5D00061FD7B427B415A42B82313402033220065
:10A5E0000121784823706E46FFF754FDAB0600D476
:10A5F000CFE0754B320003CB03C297201B780921B3
:10A600001370C0003200FFF745FD4346002B09D010
:10A61000EB0500D5C8E06D4B0393220004216C4884
:10A62000FFF738FDEB0700D4AAE08B20F8232200C7
:10A63000012100012370FFF72DFDFA210720FFF70C
:10A64000DDFEA4203F233200012140003370FFF7DC
:10A6500021FD5020002332000121FF303370FFF72D
:10A6600019FDA023EF205B0132000221338040005E
:10A67000FFF710FDC823ED20DB01320002213380FB
:10A680004000FFF707FDAE20524B3200042140008E
:10A690000093FFF7FFFC8023AD201B013200022155
:10A6A00033804000FFF7F6FC8023AC209B00320093
:10A6B000022133804000FFF7EDFCAB07DB0FD833FE
:10A6C0002200012144482370FFF7E4FC6B0751D5B9
:10A6D000424B0093320004214148FFF7DBFCFEF7B8
:10A6E0006DFFEB0640D53F4B0093320004213E48FE
:10A6F000FFF7D0FCFEF762FF08233C4C2B4363813D
:10A70000FEF75CFF4B46002B21D106200A261422BF
:10A7100010218146A3731A339C46043B9A46123B90
:10A720004046002804D04B466246A373514633008E
:10A730001420284201D01300A173002F00D0A3736E
:10A74000002006B0E0BCBA46B146A846F0BD0623DC
:10A750000C20A3731A339C46043B9A4610261A22F7
:10A7600016218146123BDBE70422A3213000FDF7CE
:10A7700045FDBAE704228B213000FDF73FFDA9E734
:10A780008B20D8232200012100012370FFF782FCD7
:10A7900093E7174B2EE7094BA380A323A3710DE783
:10A7A000064B62706380FDE6124B039335E7C046AB
:10A7B00002CAE309C8C2FFFFC4CCFFFFA3A3FFFF87
:10A7C000A70A0000B60A0000D4190200B080B490B5
:10A7D000A20A0000008EF9903D070000C0C2C4C666
:10A7E000980A0000202830389E0A000050230020DC
:10A7F000E0190200B28BB69BF0B54E464546DE46E8
:10A8000057460023E0B591B01A9C050023807F4B8A
:10A810000E00987B914608A91B9AFFF733FB03B201
:10A820009846181E238079D11422784B5B891A42EE
:10A8300000D07AE00327BC46013FB846013FB94645
:10A8400000270C2200210420BA460792013A069202
:10A85000013A0592013A0492013A0392013A0292B6
:10A86000013A8B460192009205315F062DD5524682
:10A8700008AFBA5C120292463A004F46D25D574684
:10A8800017433780474608AAD25D674612029046B2
:10A8900008AAD25D4746174308AA515C105C009A8B
:10A8A00000029346079A08430092049AB0809446A7
:10A8B000039A08209046029A77809146019A21884F
:10A8C00092460143218005980699C02676003342BE
:10A8D00021D0564608AA965D320292464E4608AAF4
:10A8E000965D524616432E80464608AA965D320271
:10A8F0009046664608AA965D4246164308AA105C32
:10A90000515C00020143009A702093466E80A9803A
:10A910002188014321809B0753D1002011B0F0BC56
:10A92000BB46B246A946A046F0BD49464846089AED
:10A9300012BA0A600999121409BA41600A980914F6
:10A9400000BA84464846674687604F468946614656
:10A95000524309148C4611004A46524389186246F4
:10A9600052438A18F12109068C4680210B988904EC
:10A9700000BAF86000144043121862448A423ED87C
:10A980008022218852000A4322801C220792013A29
:10A990000692013A0592013A0492013A0392013A71
:10A9A0000292013A01920092063A9346033294468B
:10A9B000013A9046013A9146013A152114209246F7
:10A9C00053E708AB9C465C4664446378E578DA0755
:10A9D0000BD50E4A1268002A07D007200100EB08A9
:10A9E000294018400131904763781B0795D5074BE4
:10A9F0005B68002B91D0A809984700208EE7FEF7EE
:10AA0000DDFD434601202380404287E7502300209C
:10AA10000023F0B5C356002B11DD382320249C46BB
:10AA20000821102528273026002303228256002AD9
:10AA300017DD06228256002A25DD98B2F0BD002BD4
:10AA40004ED10123C356002B27DD03223923825622
:10AA50009C4621240921112529273126383B002A2B
:10AA6000E7DC002A35D1042282560B00002AE0DC04
:10AA70005AD1052282562B00002ADADC3300002A44
:10AA8000D7D16346D5E7002A25D107228256002A6E
:10AA900013DD402003431BB2CFE7002B36D1022346
:10AAA000C356002B29DC46D13F339C4627240F2177
:10AAB00017252F273726383BB7E7002A2FD1082242
:10AAC0008256002A15DC31D0C020400003431BB25F
:10AAD000B3E72300ADE78020400003431BB2ACE79F
:10AAE0003C2324249C460C2114252C273426383B57
:10AAF0009BE7802003431BB29FE73A2322249C4616
:10AB00000A2112252A273226383B8EE73D232524A9
:10AB10009C460D2115252D273526383B85E7A0209D
:10AB2000400003431BB288E73B0082E7E02040007F
:10AB300003431BB281E73E2326249C460E211625A3
:10AB40002E273626383B70E7F0B5DE4657464E4690
:10AB50004546E0B5050085B0006803F0ADFDC221B3
:10AB6000890503F0A7FA041C686803F0A5FDC2215B
:10AB7000890503F09FFA8046A86803F09DFDC22175
:10AB8000890503F097FA8146E86803F095FDC22134
:10AB9000890503F08FFA211C051C201C03F08AFA9A
:10ABA00041468346404603F085FA49468246484678
:10ABB00003F080FA291C071C281C03F07BFA51467D
:10ABC000061C584603F090FB391C019703F08CFBE0
:10ABD000311C029602F008FF05F0B2FB06000F00E0
:10ABE0004846291C03F066FA41460390201C03F0F6
:10ABF00061FA011C039802F0F7FE05F0A1FB0200C8
:10AC00000B0003F0DBFD32003B0001F093FF00225C
:10AC10002F4B04F043FD05F05DFB2E4B291C1880E3
:10AC2000404603F047FA4946061C201C03F042FA4E
:10AC3000011C301C03F058FB05F082FBC0230022EE
:10AC40001B0604F02BFD01F043FF060080200006E8
:10AC50000F1800221E4B3000390004F01FFD05F0D4
:10AC600039FB1D4B51461880584602F0BDFE019934
:10AC700003F03AFB029903F037FB05F061FB060095
:10AC80000F004046494603F015FA291C8046201C57
:10AC900003F010FA011C404602F0A6FE05F050FB3E
:10ACA00002000B0003F08AFD32003B0001F042FF7E
:10ACB0000022074B04F0F2FC05F00CFB074B188058
:10ACC00005B0F0BCBB46B246A946A046F0BDC046A2
:10ACD000005FC4400227002008270020F62500203E
:10ACE00000B51B4B8DB001930E236B44009306A956
:10ACF000002308AA04A8FFF77FFD41B2002923D151
:10AD000008A8FFF721FF6B467022DB891A420BD09F
:10AD10006A46118A0F4A11806A46518A0E4A11808A
:10AD20006A46918A0D4A11801B070BD56B461A8B18
:10AD30000B4B1A806B465A8B0A4B1A806B469A8BC8
:10AD4000094B1A800DB000BD084805F07DFBF9E7FE
:10AD5000F82500202229002018280020442A00205D
:10AD600016280020F4250020FA250020E425020002
:10AD7000A022A223D205DB00D3589B0605D4044BA6
:10AD80001878431E9841C0B270470120FCE7C046C6
:10AD9000F825002030B5040083B000200D00FEF738
:10ADA0007DFF0100324805F04FFB7820FEF7D6FE0C
:10ADB0000100304805F048FB7820FEF77BFE0100DB
:10ADC0002D4805F041FB0020FFF726F90120FFF791
:10ADD0002BF9002C2DD0FFF745FA0100274805F08C
:10ADE00033FB2748FFF714FEFFF74AFA0100254816
:10ADF00005F02AFB7220FF30FFF7B8FB0100224864
:10AE000005F022FB6420FFF7C7FA01001F4805F098
:10AE10001BFB0120FFF7E2F901001D4805F014FBC0
:10AE20000A20FEF78BFD01001A4805F00DFB03B068
:10AE300030BD6B460122DC711A2107336820FDF713
:10AE4000D5FE0100144805F0FFFAFA202900400160
:10AE500002F026FC6B460138D87101221921073314
:10AE60006820FDF7C3FE01000C4805F0EDFADEE7AF
:10AE7000042602001C260200342602004C26020092
:10AE80009C200020642602007C26020094260200FA
:10AE9000AC260200C4260200DC260200F4260200D2
:10AEA0000B0010B501000B4805F0CEFAA022A1233B
:10AEB0008021FA20D205DB00C900D150C000FDF787
:10AEC000EFF9BFF34F8F044B044ADA60BFF34F8FA3
:10AED000FEE7C0460C27020000ED00E00400FA0582
:10AEE00080218023184A8902D1508022D221174B19
:10AEF000520289005A5040395A5001222F205A607C
:10AF00000138C046C046C046C046C046C046C046DE
:10AF1000C046C046C046C046C046F1D19A60002334
:10AF20000B4A2F2013600138C046C046C046C046B9
:10AF3000C046C046C046C046C046C046C046C046E1
:10AF4000F1D1044A1370704700E100E000100140A5
:10AF50007423002065230020A021F0B50023C646FD
:10AF60002C4A490000B5535004315350043153501A
:10AF7000043153504C39535004315350264B1B6805
:10AF8000002B38D0254900255458254A002712683F
:10AF9000244EA41A2402240A03E04346002B1BD0AB
:10AFA00043461A68A24217D8A41AAD18DA69904627
:10AFB0001A7C002AF1D05A6999691F743368002BF2
:10AFC0001CD0100098470028E7D000220021FFF78E
:10AFD00067FF4346002BE3D11349144A0B781278DC
:10AFE0009A420ED0124A9B009D5080218023114A24
:10AFF0005B004903D15080BCB846F0BD08009047C3
:10B00000CBE70132D3B2022B01D00B70EAE7002369
:10B010000B70E7E7001001407C23002004050000CE
:10B02000742300206023002071230020702300205F
:10B030006823002000E100E0F0B54546DE465746B3
:10B040004E46E0B5B44BB54A9846B5491B688FB03B
:10B05000049309781378994200D1C6E10133DBB239
:10B06000022B00D12EE11370AE4A9B009E5842463F
:10B07000049B9B191B021B0A13600993AA4B9A4657
:10B080001B680693A94B1A78531EDBB20893012361
:10B090000D920C93002A00D1E8E1A54AA54B03923A
:10B0A000127899460792089A1B68D20094460B932F
:10B0B00063441900099B3700029300230193059311
:10B0C0009D4B0A929C46069A0B784C789C421FD066
:10B0D00058004D68C0188E780133DBB2AB46F61AC3
:10B0E000751EAE414D68C0008344285C76423340F3
:10B0F000022815D00328E9D1002AE7D000201074D7
:10B10000D269002AFAD14C78013001909C42DFD1FB
:10B110000B000B98083B884239D019000B78D4E714
:10B1200058464568002AD1D0954213D01000060039
:10B13000C0690028CAD08542F9D1B54213D004684D
:10B14000C069F0610028C0D00568AB465C4404606B
:10B150004C78BBE7D46910001600002C0BD02200FD
:10B1600001240194EBE7D269002A04D02C68E86935
:10B1700001250195E8E7624601249460002401223C
:10B18000029401340192059400220794D7E7059BAD
:10B190003E00002B00D13BE1039B07991970434609
:10B1A00002991960019B002B00D137E153461A60C8
:10B1B000069B9B1A591E8B41DBB201930C9B002B03
:10B1C00000D09BE100274B461B6803999C460978F9
:10B1D000069307910A9900236144BC469946634649
:10B1E0000D00140000269046002B27D06346D96935
:10B1F0005F688C469A6802995048791A0902090AD0
:10B2000081424CD88A1801211A605E609E601974D0
:10B21000DE61002C52D027682100974266D28B460F
:10B22000C9690492D21B00294ED11A605A46D961CD
:10B23000D36123001C006346002BD7D12A786F7896
:10B24000BA425ED06B680493AB780593049B5100BF
:10B250009B468918059B0132C900D2B259449A42D3
:10B2600056D02A700B78012B49D14B68187C0028E6
:10B2700045D18F6883465F60CA689A600869D86064
:10B280004969996107990029B5D059460027596045
:10B2900002992A48791A0902090A8142B2D9029907
:10B2A000CF1B3F023F0A974216D20121D21B1A60E0
:10B2B0005E609E601974DE61002CACD101221C001E
:10B2C0009146B8E70023CEE60868904215D3C0192E
:10B2D000049FC01B0860A8E701221E605E609E609C
:10B2E0001A74DE61002CE9D000222768BA1A2260A5
:10B2F0000122DC6191461C009DE707008FE7974221
:10B30000A4D12B00069A083BAA4219D01D0095E74C
:10B3100000222E70A6E7C046742300207023002070
:10B3200071230020682300207C2300207823002044
:10B33000642300208023002000100140FEFF7F00D6
:10B340004B464246002B4BD053461C60A24248D08D
:10B35000002C00D187E06D4A6D4823688158029A1D
:10B360006C4C8A1A12022578120A0332002D57D02B
:10B37000934200D21300029AA8249446634464487E
:10B380001B021B0A614DE400035142595B1A521A19
:10B390001202120A1B0203321B0A9A4216D943599F
:10B3A00003512F200138C046C046C046C046C046A3
:10B3B000C046C046C046C046C046C046C046F1D1A1
:10B3C00080238021544A5B008902D1500023039AD4
:10B3D00013700FB0F0BCBB46B246A946A046F0BD04
:10B3E0004446019B002BB3D1F0E74C4B9A461B68B7
:10B3F00006934B4B1A78531EDBB20D920893002A2A
:10B4000000D178E0049B0026099300230C9344E6C6
:10B41000099B0293019B002B00D0C7E6069ACDE65C
:10B420008025D1266D02B6008551403E8551C0274A
:10B430008026394DB6027F00EE512E600125056051
:10B440002F200138C046C046C046C046C046C04650
:10B45000C046C046C046C046C046C046F1D1257071
:10B4600086E7304B0393FFF73BFDAFE7069B002BCE
:10B47000F7D0099B0293FF2308932A4B03930027DD
:10B48000002000253A00069B12E0DF68DC69761A8E
:10B4900040181D60002F07D0DA611A0004999F60E0
:10B4A00009180902090A59600127002C19D0230044
:10B4B0001968B142E9D93C001700002C19D0524656
:10B4C00013601A008E1B1E600D9B1400002B00D110
:10B4D00041E701230193144B9946089BDB000A9333
:10B4E00071E653461C600D9B17002200002BF0D123
:10B4F000B9E7069AE6E70B4B039367E70692002A43
:10B50000BDD10C9B170001935DE6C0460405000009
:10B51000001001406523002000E100E07C230020B2
:10B52000782300206423002080230020F8B54746BC
:10B53000CE4680B503273E0080460D001400994694
:10B5400016403A4247D1002A47D0FFF7C9FC4A4685
:10B55000244B00211A60244B6A001F70234B5219A0
:10B560001C602300D200183363609B18E3609B18B3
:10B5700063611F4BC0221E601E4BC52019701E4BFD
:10B58000268019708021A5702681A5722682A57457
:10B59000FF241A4B49035200995080001A58A243C5
:10B5A0003F3C22431A50A1221960C424414614484A
:10B5B000D2008150A4001A5912491140C02212022F
:10B5C0000A431A51104BC258104B1A603000C0BCCD
:10B5D000B946B046F8BD0726F8E7044B1E600726BB
:10B5E000F4E7C04660230020782300208023002059
:10B5F0007C230020702300207123002000E100E064
:10B6000000100140FF00FFFF04050000742300202C
:10B61000094B1B68002B0AD0002A0AD0002808D04A
:10B620000368187C002802D159745A6170470820B9
:10B63000FCE70720FAE7C04680230020F0B5C646A5
:10B6400000B5344B1B68002B52D0002850D0042981
:10B650005CD94469002C4BD0447C012C4AD0002496
:10B66000A4462D4C6568ED05EC0D002D15D0103C61
:10B6700065B2260640D4AD08284EC035AD00AE599F
:10B6800003252C40E400E640B4092C40E5B2012C2F
:10B6900004D0032D01D1083300E010335F789D788A
:10B6A0007E1CF6B2AD1B6C1EA5411C786D422E406F
:10B6B000B4422DD05D687C00A846E419E4004444FF
:10B6C000002C25D00125606025701548154D28589F
:10B6D000E1606146A0602161626180215E7080232B
:10B6E00000200E4A5B004903D15080BCB846F0BD33
:10B6F0000820FAE78C46B4E70F250B4E2540B046EC
:10B70000083DAD08AD0045446E68B9E70720ECE799
:10B710000420EAE78023002000ED00E000E100E0E3
:10B72000040500000010014018ED00E030B52B4B7F
:10B730001B68002B43D0002841D04269002A3ED02C
:10B7400000220274264A5168C905CA0D002920D179
:10B7500010335C789A78611CC9B2521A551EAA41FE
:10B76000524211401A788A4235D0620012195C6840
:10B77000D200A4466244002A2DD0022450601470E6
:10B780005970802380210020164A5B004903D15064
:10B7900030BD103A51B2140613D48908114CC0318F
:10B7A00089000C5903210A40D200D440A2090A4062
:10B7B000D1B2012ACDD00329CAD10833C9E7082064
:10B7C000E6E70F21084C1140A44608398908890092
:10B7D00061444C68E6E70420DAE7C0468023002095
:10B7E00000ED00E000E100E018ED00E0074B1B6811
:10B7F0005B0706D5002806D0054B5B780360002068
:10B8000070470820FCE70E20FAE7C04650240020CD
:10B810008423002071DF704772DF704779DF704743
:10B820007DDF704765DF7047F0B557464E464546A9
:10B83000DE46E0B587B0984612AB1B88119F019396
:10B840003B888146039303888A460292002B60D08E
:10B8500000239B4604AB0025DE1C04E04B461B88FE
:10B8600001359D422FDA53461B68A9009C460422ED
:10B87000614405A804F0DEFD0022310005A8FFF7B1
:10B88000D1FF041E2BD133784345E7D15B46002B13
:10B890002DD043463A880199D3188B423BDC109B4C
:10B8A00031009C4605A86244FFF7BCFF002834D154
:10B8B0003A88337801359B183B8001239B464B46E1
:10B8C0001B889D42CFDB5B46002B22D03B88039A2E
:10B8D000013B9B1A9BB2FF2B1DD810998B54200063
:10B8E00007B0F0BCBB46B246A946A046F0BD4246F2
:10B8F0003B8801999A1802328A420CDC109A02990C
:10B9000001339BB23B80D1543A88013292B23A80E3
:10B91000C5E70024E3E70C24E1E70400DFE7C046C5
:10B92000F0B557464E464546DE460023E0B517883B
:10B930001380436B06000D00140087B0002B00D16C
:10B94000ADE1022F00D869E11A7802230B701121B2
:10B95000238801339BB22380E954238801339BB2AF
:10B960002380EA54238801339BB22380326B002A60
:10B9700000D170E019001231B94200D94EE1112115
:10B98000E9542388013901339BB22380E954238889
:10B9900001339BB22380D17BE954238801339BB2CE
:10B9A0002380917BE954238801339BB22380517B10
:10B9B000E954238801339BB22380117BE954238807
:10B9C00001339BB22380D17AE954238801339BB29F
:10B9D0002380917AE954238801339BB22380517AE2
:10B9E000E954238801339BB22380117AE9542388D8
:10B9F00001339BB22380D179E954238801339BB270
:10BA000023809179E954238801339BB223805179B3
:10BA1000E954238801339BB223801179E9542388A8
:10BA200001339BB22380D178E954238801339BB240
:10BA300023809178E954238801339BB22380517885
:10BA4000E954238801339BB223801278EA54238877
:10BA500001339BB223802E22B25C002A00D0FAE090
:10BA60002D22B25C002A00D0D5E0B278002A00D0A6
:10BA700017E1F278002A00D0D8E07268002A15D0C9
:10BA8000D91CB94200D9C9E002211278E9542388AF
:10BA9000083101339BB22380E954238852B2013329
:10BAA0009BB22380EA542388013323803389002BFF
:10BAB00000D045E1338A002B00D060E1338B002BAE
:10BAC00000D081E1336A002B43D0228894460632AD
:10BAD000BA4200D9A2E01A88052A00D829E1B7495C
:10BAE000B748511889B28146814200D821E159886E
:10BAF000052900D81DE1B14880468844404680B2FF
:10BB0000484500D815E1AF48824204D0814202D0B6
:10BB10008A4200D90DE1052261466A541221228829
:10BB2000013292B22280A9542288013292B222803C
:10BB30001988AA181170090A51702288023292B22B
:10BB400022805988AA181170090A5170238802337B
:10BB50002380736A9846002B23D09A882088911CF2
:10BB6000831C5B18BB4259D8FE2957D803322A548C
:10BB7000FF22238801339BB22380EA544246238864
:10BB800001339BB223801288EB181A70120A5A7084
:10BB900043462088023080B220809A88002A00D054
:10BBA00078E12C23F35C002B00D02CE133780020CB
:10BBB000002B34D03288012A00D1BAE02288901CB0
:10BBC000B8422BD8012B04D1737802339B189F42C3
:10BBD00024D36B46023FBF1ABFB2281804A91F82A4
:10BBE000FFF71EFE00281AD13378022B00D16CE13A
:10BBF000012B00D15DE10822FE2F0FD82388791C8C
:10BC0000E954238801339BB22380EA54238801330B
:10BC1000FF18278003E00933BB4262D90C2007B02C
:10BC2000F0BCBB46B246A946A046F0BDD91CB942FD
:10BC3000F4D80221E9542388013901339BB22380CF
:10BC4000E954238801339BB22380EA5423880133CB
:10BC50009BB2238011E7D91CB942DFD802211C20F6
:10BC6000E954238801339BB22380E85423880133AD
:10BC70009BB22380032A00D122E15CD8012A00D1A3
:10BC800020E1022A55D10122EA542D2223880133D2
:10BC90009BB22380B25C002A00D1E6E6BBE700231A
:10BCA00064E60433BB42B9D804A8FFF7B7FD002807
:10BCB000B5D103222388EA542388163201339BB27C
:10BCC0002380EA546A462388128A01339BB2238078
:10BCD000EB181A70120A5A70238802339BB2238021
:10BCE000C7E604A8FFF796FD002800D097E70822D2
:10BCF000112123886944EA542388133201339BB20B
:10BD00002380EA542088153A013080B22080281818
:10BD100004F090FB6A462388127C06339BB2238092
:10BD2000002A00D0C3E0EA54238801339BB2238069
:10BD30009BE6072073E7042AFBD10322EA54A4E719
:10BD40000823984604339946B044B1440222494638
:10BD500040460297019400950A3BFFF765FD0028D5
:10BD600000D05CE710230622494640460297019422
:10BD70000095FFF759FD002800D19BE64FE71023FF
:10BD8000984604339946B044B1440322494640469C
:10BD9000029701940095123BFFF746FD002800D062
:10BDA0003DE710230722494640460297019400953B
:10BDB000FFF73AFD002800D180E630E77FF3FFFF70
:10BDC0007DF30000FFFF00001823984604339946D6
:10BDD000B044B1441422494640460297019400956C
:10BDE0001A3BFFF721FD002800D018E71023152289
:10BDF00049464046029701940095FFF715FD00283B
:10BE000000D15FE60BE7B36A002B92D00022914687
:10BE1000163292461632934630E022880333AB54F2
:10BE20005246238801339BB22380EA54424623883A
:10BE300001339BB223801288EB181A70120A5A70D1
:10BE400043462088023080B220809A88002A0BD096
:10BE50009968002900D16CE7281804F0EBFA4246F3
:10BE6000238892889B1823804B460133DBB2994686
:10BE70005B46F35C4B4500D898E6B36A4A46984661
:10BE800052004A449200904443469B889A1CFE2AE2
:10BE9000C3D9C3E69968002900D14AE7281804F0FD
:10BEA000C9FA4246238892889B18238079E60122AA
:10BEB00039E773789F4200D29DE61F0008229BE677
:10BEC000E954E2E60022EA54DFE66B461B8A9F4211
:10BED00000D290E61F0009228EE6C04630B593B02E
:10BEE0001F236A4604000D009380D380002821D0D0
:10BEF000C3785B0725D501AA02A9FFF711FD002829
:10BF000016D102AC002D18D0EB78002B19D16B465E
:10BF100028009A1D0AA9FFF703FD002808D16B46E7
:10BF20009B790AAD6A46200011792A00FFF774FC5C
:10BF300013B030BD9080002DE6D16B46DD8000232C
:10BF4000F0E70720F4E7C04673DF7047F0B5A34D74
:10BF500007220021280087B0FCF750F9A04C637835
:10BF6000002B1DD09F4E3378012B00D1EEE0A2783C
:10BF7000002A00D0F6E09C4F3A68022B1CD1032324
:10BF80003370237B002B00D0AEE004233370237E7C
:10BF9000002B00D0A8E00023944A337013701BE0FC
:10BFA000A378002B48D1904F8E4E3A683378012BFE
:10BFB00000D1ADE0022B4BD0217B002901D1032B16
:10BFC000E3D0217E002901D1042BE4D0002A03D044
:10BFD000033B012B00D88AE00022854B1A701822FF
:10BFE00000216846FCF70AF900226B461A701A72A3
:10BFF000337801920392032B00D1DFE044D8012B68
:10C0000000D1D4E0022B68D1694601220A70A268EF
:10C0100001954A8262680A82744A13706846FFF783
:10C0200093FF002806D13B68002B5BD06F4A107845
:10C030009847002007B0F0BD6A4E3378022B00D13C
:10C0400095E0012B00D08FE0674F3A6802233370F0
:10C05000A378002B00D192E76B78002BBCD1AB7892
:10C06000002BB9D1EB78002BB6D12B79002BB3D1B3
:10C070006B79002BB0D1AB79002BADD1032333709A
:10C08000237B002B30D180E7042BC7D16946E269BE
:10C090000A82226A4A8257490A79087B02436ED192
:10C0A0000422524B1A70B9E72378002B00D190E09C
:10C0B000514B1B78002B00D08BE0694602334F4870
:10C0C0000B72023300210392C370FFF707FF0028B1
:10C0D000B0D10522454B1A703378002B9ED13B68B6
:10C0E000002BA3D10020A5E7002A00D174E7237814
:10C0F000002B00D170E7404B1B78002B00D06BE782
:10C1000001213B4B07201970904768E73C4B1A70A0
:10C110006378002B9AD06B78002B00D05CE7AB786B
:10C12000002B00D058E7EB78002B00D054E72B7998
:10C13000002B00D050E76B79002B00D04CE7AB7997
:10C14000002B00D048E70223337081E7264F3A687E
:10C15000002ADBD001212A4B0820197090473A6849
:10C16000337824E7022B02D01F4F3A6824E71E4F92
:10C170003A68002AEED1224B1A70002268E7227832
:10C18000002A8DD01C4A1278002A89D168460232D2
:10C1900002721A4803910021C370FFF79FFE002826
:10C1A00000D047E70622114B1A70337895E76946AD
:10C1B00004920E4A01950B7013702FE76A4663696B
:10C1C0005382236913820B4A1379117B0B4300D0EE
:10C1D0006AE70322054B1A7020E7C046F0240020CE
:10C1E0005824002055240020BC2400205424002082
:10C1F0003C2500202C2500203D2500207C2400200B
:10C20000EC240020F8B504000E00002800D17DE0E9
:10C21000002A00D17AE000203D4908703D490B60BA
:10C2200006993D4B19603D490B0023CA23C323CA1D
:10C2300023C323CA23C3072200213948FBF7DEFFAB
:10C24000384B394A394D1A60394A00219A60280022
:10C250003822FBF7D3FF237822002B70A37810320B
:10C26000AB70E378EB7063786B702B00103303CA0C
:10C2700003C32B00103A083303CA03C32B00083250
:10C28000183303CA03C3636A002B11D0294B2A4F0A
:10C290006B62616A9F600A881A808888988000288B
:10C2A00006D000238A68D25CFA5401338342F9D362
:10C2B000A36A002B14D0214B214FAB62A16A9F606F
:10C2C000888898800A881A80002806D000238A6807
:10C2D000D25CFA5401338342F9D32C23E25CEA5452
:10C2E000236A002B06D0174B2B62226A5188598093
:10C2F00012881A806368002B03D0134B6B6063684D
:10C300006B6031002800FFF7E9FDF8BD0E20FCE767
:10C3100055240020BC240020B824002058240020EC
:10C32000F02400202C250020402500207C24002023
:10C3300060250020E0240020C0240020F8240020F4
:10C3400004250020242500202825002010B50024E5
:10C350000B4B82B0187001A80194FFF747FA082828
:10C3600009D0002805D1019B002B05D00122054BE7
:10C370001A7002B010BD0194FFF7E8FDF9E7C0465E
:10C3800055240020B424002030B5038883B0112B3D
:10C3900005D0192B20D0102B1AD003B030BD0024AB
:10C3A000324B1C70324B82881B889A42F5D1012592
:10C3B000304B01A81D700194FFF718FA082833D0FC
:10C3C000002836D1019B002B2FD02B4B1D70E4E7AA
:10C3D0008288274B1A80E0E78579002DDDD1254B37
:10C3E0001C78032C3DD014D8012C2AD00322022C17
:10C3F000D3D101A81A700195FFF7F8F908281ED0CB
:10C40000002816D1019B002B0FD001221A4B1A7065
:10C41000C3E7042CC1D1194B1D70194B1B68002BAD
:10C42000BBD000209847B8E70194FFF78FFD0028A4
:10C43000B3D0144B1B68002BAFD09847ADE70195E4
:10C44000F3E7022201A81A700195FFF7CFF9082837
:10C45000F5D00028EDD1019B002BE6D0064B1C70D7
:10C460009BE7064A14700422C3E7C0463D2500201E
:10C47000A620002055240020B424002054240020AD
:10C48000BC240020B824002075DF704776DF704799
:10C490007ADF70477BDF704710B5184B82B0188881
:10C4A000174B984214D0174A174C13780133DBB25C
:10C4B0001370217B99420DD200231370237C002B33
:10C4C00012D16369002B03D0002201A802709847A3
:10C4D00002B010BD0D49FFF7D7FF0028F8D0A369BF
:10C4E000002BF5D09847F3E73B21FFF7CFFF00285B
:10C4F000E7D0A369002BE4D09847E2E7822500202B
:10C50000FFFF0000D025002084250020C825002042
:10C5100030B51B4B1B4A5B88118883B099420CD8FD
:10C5200052889A4209D3184B5B69002B03D0012231
:10C5300001A802709847154C0BE0144C2378002B8F
:10C540000BD0114B5B69002B03D0002201A80270B5
:10C5500098470023237003B030BD0D4B0A4D1B7864
:10C56000002B0BD0A96800220A48FFF767F80028C3
:10C57000EFD0AB69002BECD09847EAE76968F2E7A7
:10C58000C0250020C825002084250020802500200B
:10C59000D0250020A0250020164902000B0070B510
:10C5A00032CA32C332CA32C312681A600022124B36
:10C5B00001681A70002916D0104C0832200003F0D0
:10C5C00039FF2000FFF764FF00280BD101220C4B3C
:10C5D00052421A8000220B4B00211A700A480B4A63
:10C5E000FFF716F870BD0548FFF754FF0028EDD09F
:10C5F000F8E7C0468425002080250020C8250020BB
:10C6000082250020D02500203427020099C4010093
:10C6100010B50388122B2ED015D8102B33D0112B28
:10C6200010D10122204B52421A8000221F4B204879
:10C630001A70FFF77BF8002804D01E4B9B69002B73
:10C6400000D0984710BD502BFCD11A4CC288E3890A
:10C650009A42F7D1C38B022BF4D11E33C35CDB07A4
:10C660000ED41348FFF762F80028EBD0A369002B23
:10C67000E8D09847E6E7811D08220F4803F0DAFE6C
:10C68000FFF746FFDEE701008288074B0A481A8061
:10C690001631082203F0CEFE0022044B1A70054B1F
:10C6A000DB89002BCED1EBE782250020D0250020AE
:10C6B000A025002084250020C0250020A0DF704791
:10C6C000A2DF704763DF704710B5002808D000294B
:10C6D00006D00B88112B15D0502B05D0102B00D075
:10C6E00010BD8B888382FBE7CB88028A9A420DD0EB
:10C6F00082889A42F4D18369002BF1D0CA8B203111
:10C700009847EDE701235B428382E9E7CA8B022A5F
:10C71000EED12123CA5C013BCB5C12021343012200
:10C72000110019401A4201D08275D9E78175D7E707
:10C73000F0B557464E464546DE46E0B595B0040096
:10C7400004A802005C4BE0CBE0C21B681360002C25
:10C7500000D1AFE0002900D1ACE001235B42A3820D
:10C760000B682100A3610023A375FFF7ABFF051E33
:10C7700007D0280015B0F0BCBB46B246A946A0467B
:10C78000F0BD6A46237801209372012398466B46D8
:10C79000424602A91A81A21CFFF790FF051EE8D1AC
:10C7A000032200216846FBF729FD444B00219946EE
:10C7B0006B464A461A8006229B780DA893430222B4
:10C7C00013436A4693701C22FBF718FD34216B4615
:10C7D00010225B181B7803AF13436A46521813707C
:10C7E0006B461293237801AEBB7003230322002112
:10C7F00030000E951095119513953B80FBF7FEFCCC
:10C800004B461F223380B3789346934303229246CC
:10C8100052460021134308A81422B370FBF7EEFC24
:10C8200043466A460A931333938523000DAD2900CE
:10C8300060880C3308AA08970996FFF741FF051E88
:10C8400097D11C2200210DA8FBF7D8FC34216A46A1
:10C85000521813780C22934313436A4652181370EC
:10C8600023780322BB700223002130000E9510951F
:10C870001195129513953B80FBF7C0FC4A46328018
:10C880005A46B37800219343524608A81343142212
:10C89000B370FBF7B3FC424614230A926A469385B1
:10C8A0006088231D08AA0DA908970996FFF708FFBD
:10C8B00005005EE70E255CE7382702001111000035
:10C8C0002EDF704751DF704710DF704761DF704720
:10C8D00010B50800110000E000BF10BDF0B5D6464D
:10C8E0004F464646C0B53B4B82B01E6899467542DE
:10C8F0007541394BEDB29A461B68002B52D1002E80
:10C9000005D102B0E0BCBA46B146A846F0BD334BF3
:10C9100001269846324F01AC3B88210023804346D4
:10C920001D682800FFF7D2FF052830D0002826D147
:10C930004B4628001B689847002E26D12000FFF7A1
:10C94000C1FF052821D000283ED10025534601987B
:10C950001B689847002D0DD02000FFF7B3FF01257D
:10C960000528CED00028F1D000220021FEF798FA49
:10C97000002DF1D1194B00269846194FCCE7002223
:10C980000021FEF78DFA002ED8D00126C4E7002E34
:10C99000B7D12000FFF796FF0528B2D000280ED1AE
:10C9A0000125D3E701AC2000FFF78CFF0528D9D182
:10C9B000002EA6D0094B01269846094FACE700226D
:10C9C0000021FEF76DFAC7E700220021FEF768FAA2
:10C9D0000026A1E7D4250020E0250020E425002042
:10C9E000D225002010B5002914D08C0712D10A4C92
:10C9F00021600A490A800A4A0A491360FFF764FF66
:10CA0000002800D010BD0122074B16301A70FFF726
:10CA100057FFF7E70720F5E7E4250020D22500209F
:10CA2000D8250020D1C80100DC250020002803D033
:10CA3000024B1860002070470E20FCE7D425002030
:10CA400010B50A4B1B68002B08D09847002800D16E
:10CA500010BD00220021FEF723FAF9E7044B1B78F2
:10CA6000002BF5D0FFF73AFFF2E7C046D8250020AB
:10CA7000DC25002003210A4802680A4302600948B5
:10CA800002680A4302600849084A094B9B1A03DD01
:10CA9000043BC858D050FBDC064880470648004796
:10CAA0002405004054050040942902000020002085
:10CAB000B42000201182010015810100FEE7FEE78D
:10CAC000FEE7FEE7FEE7FEE74B0059087047C04669
:10CAD000F8B504000D0000F031F8134B06001B7888
:10CAE0000F005BB2013311D022002B00200029007F
:10CAF00003F0D2FB002809D120002900FFF7E4FF52
:10CB000000220A4B00F0E2FE002802D1300039007A
:10CB1000F8BD03F07BFC21230360054800F030FDE5
:10CB200006000F00F2E7C046A82000200000F03FFA
:10CB30003C19020010B500F0F5F910BDF0B54F46F4
:10CB4000D64680B5D64B4E0007008A46894689B046
:10CB500076089E4218DDD34B9C466644064300D1BE
:10CB6000FAE002000B003800514603F003F802001F
:10CB70000B0002F08DF903000A001800110009B043
:10CB8000C0BCBA46B146F0BDC74B9E4211DCF9238A
:10CB90009B059E4200DB1AE1C44AC54B3800514652
:10CBA00001F00CFE0022C34B00F090FE002800D0E4
:10CBB0000AE138005146FFF787FF02000B00002012
:10CBC000BC4902F0D7FF0022BB4B02F067FD040016
:10CBD0000D00BA4ABA4B02F061FDBA4ABA4B01F0F5
:10CBE000EDFD22002B0002F059FDB84AB84B02F0CF
:10CBF000C1FF22002B0002F051FDB64AB64B01F0F6
:10CC0000DDFD22002B0002F049FDB44AB44B02F0D6
:10CC1000B1FF22002B0002F041FDB24AB24B01F0FD
:10CC2000CDFD22002B0002F039FDB04A02900391A5
:10CC3000AF4B2000290002F031FDAE4AAE4B02F0AE
:10CC400099FF22002B0002F029FDAC4AAC4B01F009
:10CC5000B5FD22002B0002F021FDAA4AAA4B02F0EA
:10CC600089FF22002B0002F019FD924B002201F0F7
:10CC7000A5FD049005912000290000F00DFAA34BBA
:10CC8000009001919E4200DD7DE000980199020034
:10CC90000B000F0001F092FD049A059B069007918E
:10CCA0000298039902F0F4F802000B000698079925
:10CCB00002F0F4FC00260290039132003B003000A9
:10CCC000390002F0EBFC02000B002000290002F00A
:10CCD00051FF320004000D00009801993B0001F063
:10CCE0006DFD02000B002000290002F0D1F80200C7
:10CCF0000B0001F063FD02000B008548854902F03E
:10CD000039FF02000B000298039902F033FF320052
:10CD100004000D003B003000390001F04FFD02001F
:10CD20000B007D487D4902F025FF02000B0020002A
:10CD3000290002F01FFF02000B007748774902F03C
:10CD400019FF03000A004946002900DD15E780218C
:10CD500009068C46624410E76F4A714B3800514611
:10CD600002F09CFC6A4A04000D006A4B38005146F0
:10CD700002F094FC02000B002000290001F01EFDCF
:10CD800003000A00F9E6049A059B0298039902F051
:10CD90007FF8009C019D22002B0002F07FFC220006
:10CDA0002B0001F00BFD02000B0001F007FD584ABB
:10CDB000584B02F0DFFE02000B005748584902F0C2
:10CDC000D9FE03000A00BEE73B005246D5E602004A
:10CDD0000B003800514602F061FC04000D00374A98
:10CDE000374B02F05BFC374A374B01F0E7FC22007F
:10CDF0002B0002F053FC354A354B02F0BBFE2200FB
:10CE00002B0002F04BFC334A334B01F0D7FC2200DD
:10CE10002B0002F043FC314A314B02F0ABFE220002
:10CE20002B0002F03BFC2F4A2F4B01F0C7FC2200E5
:10CE30002B0002F033FC2D4A009001912C4B200076
:10CE4000290002F02BFC2B4A2B4B02F093FE220010
:10CE50002B0002F023FC294A294B01F0AFFC2200F1
:10CE60002B0002F01BFC274A274B02F083FE220016
:10CE70002B0002F013FC00220E4B01F09FFC02007D
:10CE80000B000098019902F003F83A00534602F0B3
:10CE900005FC3A00534601F091FC03000A006CE6E1
:10CEA000FFFFEF3F000010C0FFFFDF3F9C750088D1
:10CEB0003CE4377E0000F03F0000E03F09F7FD0D45
:10CEC000E13D023F88B20175E0EF493F3B8F68B515
:10CED0002882A43F5544880E55C1C93F7D6FEB039E
:10CEE00012D6D43F555555555555C53F82922EB152
:10CEF000C5B8B33F59018D1B6C06E63FC88A599CE3
:10CF0000E52A00404B2D8A1C273A03403233EF3F7D
:10CF1000075C143326A6913C182D4454FB21E93FAD
:10CF2000FB21F93FF8B54746CE4680B517000C0007
:10CF30005A0019007B4205003B434B485208DB0F67
:10CF40001343834237D863005B089C4666466B42B6
:10CF50002B43DB0FA146334383422CD8434BCB18E2
:10CF60003B433AD002268B171E40E30F1E43634615
:10CF70002B4329D013003B4334D0824240D0844518
:10CF800030D063469A1A12153C2A36DC002942DA60
:10CF90003C3240DA00200021012E52D0022E45D032
:10CFA000002E0DD0324A334B02F0E4FD324A334BAF
:10CFB00002F0E0FD04E02A002300380001F0FEFB4F
:10CFC000C0BCB946B046F8BD022E11D028002100E1
:10CFD000032EF5D128482A49F2E72800210000F065
:10CFE00033F9EDE74B462448002B04DB2549E7E7FE
:10CFF00021482249E4E72449E2E71F482149CBE7D9
:10D00000013E944522D0022E28D8204BF6009E19CE
:10D0100030687168D4E70B003A002800210001F065
:10D0200037FFFFF751FD00F00FF9B5E7104A114B3C
:10D0300002F0A0FD02000B000F48104902F09AFD1B
:10D04000BEE7802424060B191900B9E7022E08D880
:10D050000F4BF6009E1930687168B1E7002000217F
:10D06000AEE705480B49ABE70000F07F000010C0B9
:10D07000075C143326A6A13C182D4454FB2109401B
:10D08000FB2109C0FB21F93FFB21F9BF602702000A
:10D0900048270200FB21E93FF8B5684BCE464746DA
:10D0A0000500020018000C0080B50840984200D12D
:10D0B000A0E0002969DD081500D177E0604B090385
:10D0C000C4188023090B5B030B43C10703D4D00FA3
:10D0D0005B00C3185200611088465B00D10F5B18DB
:10D0E0000021802016248C46520080030D189D429A
:10D0F00002DC29185B1B8444D50F5B00013CEB1854
:10D1000052004008002CF1D10020814680202026CA
:10D11000000609E08B425ED0D50F5B00013E5B1933
:10D1200052004008002E16D005198B42F2DD0F0088
:10D130002C18002D4BDB5B1AAA42894149425B1A2D
:10D14000521BD50F5B00013E814439005B19520030
:10D150004008002EE8D1134345D14B465E08634694
:10D160005910384B994663464944DB0702D5802362
:10D170001B061E4343461805431835001C002800B3
:10D180002100C0BCB946B046F8BD4B005B082B433C
:10D19000F5D0002000293AD1D30A190015385205DC
:10D1A000002BF9D080246403234241D18023002442
:10D1B0005B034900250001341942FAD020260B00F8
:10D1C0001100A240361BF140401B194376E7E743AC
:10D1D000FF0FCF19AFE795429ED82C18002DF6DB34
:10D1E0001F000023ACE74B4601331DD04E460136ED
:10D1F0007608B4E72A000B002800210002F04EFA5E
:10D200002A00230001F0DAFA05000C00B7E72A0033
:10D210000B002800210002F0ADFC02000B0001F021
:10D2200037FE05000C00AAE701239946CC4496E797
:10D230000125110020266D42C5E7C0460000F07FA1
:10D2400001FCFFFF0000E03FF8B54E46574645465B
:10D25000DE46A44BE0B54E00804689468A467608F5
:10D260009E420CDDA04B9E4200DDA3E000D19EE07B
:10D270005346002B00DCE1E09C4B9D4AA2E09D4B15
:10D280009E4200DDB4E09C4B9E4200DCA2E0012304
:10D290005B429B4642464B464046494602F0FEF9F9
:10D2A00002000B0006000F0002F0F8F904000D0068
:10D2B000924A934B02F0F2F9924A934B01F07EFAB4
:10D2C00022002B0002F0EAF9904A914B01F076FA25
:10D2D00022002B0002F0E2F98E4A8F4B01F06EFA29
:10D2E00022002B0002F0DAF98C4A8D4B01F066FA2D
:10D2F00022002B0002F0D2F98A4A8B4B01F05EFA31
:10D3000032003B0002F0CAF9884A894B06000F0040
:10D310002000290002F0C2F9864A874B02F02AFC5D
:10D3200022002B0002F0BAF9844A854B02F022FC5D
:10D3300022002B0002F0B2F9824A834B02F01AFC61
:10D3400022002B0002F0AAF9804A814B02F012FC65
:10D3500022002B0002F0A2F90B0059460200013115
:10D3600000D16EE059463000CC00390001F026FAB9
:10D3700042464B4602F092F9764D774B2D191C1917
:10D380002268636802F0F6FB42464B4602F0F2FB6D
:10D3900002000B002868696802F0ECFB03005046AD
:10D3A0000A0000280EDA802212068A180AE00028F5
:10D3B00000D15DE742464B464046494601F0FEF942
:10D3C00003000A0018001100F0BCBB46B246A94693
:10D3D000A046F8BD614A624B01F0F0F90022614BB2
:10D3E00000F074FA002800D151E743464A46E9E7C5
:10D3F000FFF76AFB5C4B04000D009E4232DC5B4B86
:10D400009E4258DC02000B0001F0D8F90022554B77
:10D4100002F0B0FB802306000F000022DB05200095
:10D42000290001F0CBF90B0002003900300001F0B7
:10D430002FFD0023804689469B462BE72B4B4C4A09
:10D44000C0E73000390001F0B9F942464B4602F01E
:10D4500025F902000B004046494602F08BFB030011
:10D460000A00AFE7434B9E421ADC0022424B02F017
:10D4700081FB002206000F003F4B2000290002F034
:10D480000DF90022374B01F099F90B000200390029
:10D49000300001F0FDFC0223804689469B46F9E6F8
:10D4A0000B0002003549002001F0F2FC0323804606
:10D4B00089469B46EEE600222A4B02F05BFB0022E7
:10D4C00006000F00274B2000290001F077F90B0020
:10D4D00002003900300001F0DBFC01238046894660
:10D4E0009B46D7E6FFFF0F440000F07F182D445401
:10D4F000FB21F93FFFFFDB3FFFFF1F3E11DA22E375
:10D500003AAD903FEB0D76244B7BA93F513DD0A027
:10D51000660DB13F6E204CC5CD45B73FFF830092ED
:10D520002449C23F0D5555555555D53F2F6C6A2C92
:10D5300044B4A2BF9AFDDE522DDEAD3F6D9A74AFAA
:10D54000F2B0B33F711623FEC671BC3FC4EB98998D
:10D550009999C93F78270200982702009C75008896
:10D560003CE4377E0000F03FFFFFF23FFFFFE53F66
:10D57000FB21F9BFFF7F03400000F83F0000F0BF30
:10D58000002001497047C0460000F87F0022430890
:10D590008B4274D303098B425FD3030A8B4244D37B
:10D5A000030B8B4228D3030C8B420DD3FF220902BD
:10D5B00012BA030C8B4202D31212090265D0030B7C
:10D5C0008B4219D300E0090AC30B8B4201D3CB0372
:10D5D000C01A5241830B8B4201D38B03C01A5241B4
:10D5E000430B8B4201D34B03C01A5241030B8B42B6
:10D5F00001D30B03C01A5241C30A8B4201D3CB02A1
:10D60000C01A5241830A8B4201D38B02C01A524185
:10D61000430A8B4201D34B02C01A5241030A8B4288
:10D6200001D30B02C01A5241CDD2C3098B4201D3A0
:10D63000CB01C01A524183098B4201D38B01C01A1E
:10D64000524143098B4201D34B01C01A5241030995
:10D650008B4201D30B01C01A5241C3088B4201D344
:10D66000CB00C01A524183088B4201D38B00C01AF1
:10D67000524143088B4201D34B00C01A5241411A18
:10D6800000D20146524110467047FFE701B5002025
:10D6900000F0F0F802BDC0460029F7D076E77047E9
:10D6A00003460B437FD4002243088B4274D3030903
:10D6B0008B425FD3030A8B4244D3030B8B4228D3A4
:10D6C000030C8B420DD3FF22090212BA030C8B42CA
:10D6D00002D31212090265D0030B8B4219D300E06A
:10D6E000090AC30B8B4201D3CB03C01A5241830BEF
:10D6F0008B4201D38B03C01A5241430B8B4201D39F
:10D700004B03C01A5241030B8B4201D30B03C01AC7
:10D710005241C30A8B4201D3CB02C01A5241830A41
:10D720008B4201D38B02C01A5241430A8B4201D370
:10D730004B02C01A5241030A8B4201D30B02C01A9A
:10D740005241CDD2C3098B4201D3CB01C01A524101
:10D7500083098B4201D38B01C01A524143098B428A
:10D7600001D34B01C01A524103098B4201D30B0173
:10D77000C01A5241C3088B4201D3CB00C01A524198
:10D7800083088B4201D38B00C01A524143088B425D
:10D7900001D34B00C01A5241411A00D201465241F6
:10D7A000104670475DE0CA0F00D04942031000D315
:10D7B0004042534000229C4603098B422DD3030A6A
:10D7C0008B4212D3FC22890112BA030A8B420CD37A
:10D7D000890192118B4208D3890192118B4204D3A3
:10D7E00089013AD0921100E08909C3098B4201D323
:10D7F000CB01C01A524183098B4201D38B01C01A5D
:10D80000524143098B4201D34B01C01A52410309D3
:10D810008B4201D30B01C01A5241C3088B4201D382
:10D82000CB00C01A524183088B4201D38B00C01A2F
:10D830005241D9D243088B4201D34B00C01A524106
:10D84000411A00D20146634652415B10104601D393
:10D850004042002B00D54942704763465B1000D31D
:10D86000404201B5002000F005F802BD0029F8D0C3
:10D8700016E770477047C0468446101C62468C46C7
:10D88000191C634600E0C0461FB501F097FE002852
:10D8900001D40021C8421FBD10B501F0E1FD404296
:10D8A000013010BD10B501F089FE002801DB002019
:10D8B00010BD012010BDC04610B501F07FFE00284C
:10D8C00001DD002010BD012010BDC04610B501F0E3
:10D8D00003FE002801DC002010BD012010BDC04661
:10D8E00010B501F0F9FD002801DA002010BD01207B
:10D8F00010BDC0468446081C6146FFE71FB500F016
:10D900008FFB002801D40021C8421FBD10B500F0D4
:10D9100013FB4042013010BD10B500F081FB002820
:10D9200001DB002010BD012010BDC04610B500F085
:10D9300077FB002801DD002010BD012010BDC0468E
:10D9400010B500F021FB002801DC002010BD0120F3
:10D9500010BDC04610B500F017FB002801DA00200A
:10D9600010BD012010BDC046F0B515042D0C0F00F0
:10D9700001002E00C64684460004140C000C090C5D
:10D9800046434D43604361434019340C241800B5AD
:10D99000A54203D98020400280464144250C6D18E1
:10D9A000614659437A43300449192404000C201875
:10D9B000891880BCB846F0BD9E2110B5C905041C6D
:10D9C000FFF7C8FF002803D1201C00F055FE10BD52
:10D9D0009E21201CC90500F087FC00F04DFE80232D
:10D9E0001B069C466044F2E7F0B54646D6464F46D5
:10D9F0004D024202C0B5520A6E0A4700B0463F0EC1
:10DA00004E00C40FD00094463B008246360EC90F2C
:10DA1000AD098C426DD0B81B814600284DDD002E2B
:10DA200000D188E0FF2F5AD08023DB041D434B46F2
:10DA300001221B2B0ADC2B004A464946D3402022F8
:10DA4000521A95402A00551EAA411A4353469A1A63
:10DA5000530100D4B9E092019609300002F0B8FCFD
:10DA600005388640874200DDD4E03300C71B202004
:10DA70000137FB40C71BBE403200561EB241002793
:10DA80001A43530704D00F231340042B00D0043251
:10DA9000530100D49CE07B1CFE2F00D19AE0920140
:10DAA000520A9446DBB2D8056346E4071843204384
:10DAB000E0BCBA46B146A846F0BD002849D0F31BE9
:10DAC000002F00D0B6E05246002A60D0013B002B68
:10DAD00000D1FCE0FF2E00D0B4E00C004246002A4A
